:020000040000FA
:040000001EEF00F0FF
:100008005B82F2AC0AEF00F00CEF00F01CEF00F09E
:10001800A0A011EF00F013EF00F01CEF00F0A1A07A
:1000280018EF00F01AEF00F01CEF00F0CAEC17F020
:100038005B92110093EF15F00001D96F020E0001D9
:10004800E26FE251020D000EF324D96E010EF42086
:10005800DA6EDECFDEF0DDCFDFF0E251D56FD66BA2
:10006800D890D537D637020ED525D96E010ED621B0
:10007800DA6EDECFE0F0DDCFE1F0CD0E176ECC0EFC
:10008800186ECC0E196E3D0E1A6EEDC005F0EEC05E
:1000980006F0076A086A000EDBEC0EF005C013F0E4
:1000A80006C014F007C015F008C016F05CEC0AF0A2
:1000B80013C040F014C041F015C042F016C043F020
:1000C800EDC005F0EEC006F0076A086A000EDBEC2A
:1000D8000EF005C03CF006C03DF007C03EF008C079
:1000E8003FF0E7EC15F03CC044F03DC045F03EC0A1
:1000F80046F03FC047F0DEC005F0DFC006F0076AF3
:10010800086A000EDBEC0EF005C048F006C049F0A6
:1001180007C04AF008C04BF037EC11F0D8B097EFA1
:1001280000F099EF00F0BBEF01F0DEC005F0DFC092
:1001380006F0076A086A000EDBEC0EF005C044F012
:1001480006C045F007C046F008C047F0CD0E176E50
:10015800CC0E186ECC0E196E3D0E1A6EEDC005F061
:10016800EEC006F0076A086A000EDBEC0EF005C068
:1001780013F006C014F007C015F008C016F05CECC8
:100188000AF013C030F014C031F015C032F016C0B8
:1001980033F0EDC005F0EEC006F0076A086A000EFD
:1001A800DBEC0EF005C02CF006C02DF007C02EF0D9
:1001B80008C02FF0D5EC05F02CC048F02DC049F050
:1001C8002EC04AF02FC04BF037EC11F0D8B0EFEF4B
:1001D80000F0F1EF00F0BBEF01F0CD0E176ECC0E82
:1001E800186ECC0E196E3D0E1A6EEFC005F0F0C0F9
:1001F80006F0076A086A000EDBEC0EF005C013F083
:1002080006C014F007C015F008C016F05CEC0AF040
:1002180013C040F014C041F015C042F016C043F0BE
:10022800EFC005F0F0C006F0076A086A000EDBECC4
:100238000EF005C03CF006C03DF007C03EF008C017
:100248003FF0E7EC15F03CC044F03DC045F03EC03F
:1002580046F03FC047F0E0C005F0E1C006F0076A8D
:10026800086A000EDBEC0EF005C048F006C049F045
:1002780007C04AF008C04BF037EC11F0D8B047EF90
:1002880001F049EF01F0BBEF01F0E0C005F0E1C07B
:1002980006F0076A086A000EDBEC0EF005C044F0B1
:1002A80006C045F007C046F008C047F0CD0E176EEF
:1002B800CC0E186ECC0E196E3D0E1A6EEFC005F0FE
:1002C800F0C006F0076A086A000EDBEC0EF005C005
:1002D80013F006C014F007C015F008C016F05CEC67
:1002E8000AF013C030F014C031F015C032F016C057
:1002F80033F0EFC005F0F0C006F0076A086A000E98
:10030800DBEC0EF005C02CF006C02DF007C02EF077
:1003180008C02FF0D5EC05F02CC048F02DC049F0EE
:100328002EC04AF02FC04BF037EC11F0D8B09FEF39
:1003380001F0A1EF01F0BBEF01F0D8900001DA3530
:10034800DA6FDB35DB6FDC35DC6FDD35DD6FD9511E
:10035800D8B4B1EF01F0B3EF01F03CEF03F0FB0EBE
:10036800BB6FFF0EBC6F04EC17F03CEF03F0CD0E33
:10037800176ECC0E186ECC0E196E3D0E1A6EF1C0AB
:1003880005F0F2C006F0076A086A000EDBEC0EF012
:1003980005C013F006C014F007C015F008C016F029
:1003A8005CEC0AF013C040F014C041F015C042F0F4
:1003B80016C043F0F1C005F0F2C006F0076A086AFB
:1003C800000EDBEC0EF005C03CF006C03DF007C0A7
:1003D8003EF008C03FF0E7EC15F03CC044F03DC0EB
:1003E80045F03EC046F03FC047F0DEC005F0DFC034
:1003F80006F0076A086A000EDBEC0EF005C048F04C
:1004080006C049F007C04AF008C04BF037EC11F0BD
:10041800D8B011EF02F013EF02F047EF03F0DEC09F
:1004280005F0DFC006F0076A086A000EDBEC0EF084
:1004380005C044F006C045F007C046F008C047F0C4
:10044800CD0E176ECC0E186ECC0E196E3D0E1A6EB0
:10045800F1C005F0F2C006F0076A086A000EDBEC8E
:100468000EF005C013F006C014F007C015F008C060
:1004780016F05CEC0AF013C030F014C031F015C06F
:1004880032F016C033F0F1C005F0F2C006F0076A8A
:10049800086A000EDBEC0EF005C02CF006C02DF04B
:1004A80007C02EF008C02FF0D5EC05F02CC048F09E
:1004B8002DC049F02EC04AF02FC04BF037EC11F098
:1004C800D8B069EF02F06BEF02F047EF03F0CD0E02
:1004D800176ECC0E186ECC0E196E3D0E1A6EF3C048
:1004E80005F0F4C006F0076A086A000EDBEC0EF0AF
:1004F80005C013F006C014F007C015F008C016F0C8
:100508005CEC0AF013C040F014C041F015C042F092
:1005180016C043F0F3C005F0F4C006F0076A086A95
:10052800000EDBEC0EF005C03CF006C03DF007C045
:100538003EF008C03FF0E7EC15F03CC044F03DC089
:1005480045F03EC046F03FC047F0E0C005F0E1C0CE
:1005580006F0076A086A000EDBEC0EF005C048F0EA
:1005680006C049F007C04AF008C04BF037EC11F05C
:10057800D8B0C1EF02F0C3EF02F047EF03F0E0C0DC
:1005880005F0E1C006F0076A086A000EDBEC0EF021
:1005980005C044F006C045F007C046F008C047F063
:1005A800CD0E176ECC0E186ECC0E196E3D0E1A6E4F
:1005B800F3C005F0F4C006F0076A086A000EDBEC29
:1005C8000EF005C013F006C014F007C015F008C0FF
:1005D80016F05CEC0AF013C030F014C031F015C00E
:1005E80032F016C033F0F3C005F0F4C006F0076A25
:1005F800086A000EDBEC0EF005C02CF006C02DF0EA
:1006080007C02EF008C02FF0D5EC05F02CC048F03C
:100618002DC049F02EC04AF02FC04BF037EC11F036
:10062800D8B019EF03F01BEF03F047EF03F0D890B1
:100638000001DA35D56FDB35D66FDC35D76FDD35A0
:10064800D86F010ED511DA6FD651DB6FD751DC6F39
:10065800D851DD6FD951D8B434EF03F036EF03F039
:100668003CEF03F0FD0EBB6FFF0EBC6F04EC17F000
:10067800020E0001E227400EE26545EF03F047EF66
:1006880003F025EF00F00001D951D8B44EEF03F084
:1006980050EF03F056EF03F0B60EBB6FFF0EBC6FC2
:1006A80004EC17F0DAC0D1F0DBC0D2F0DCC0D3F034
:1006B800DDC0D4F012004BC0D9FF4CC0DAFFDECF4A
:1006C800F6FFDDCFF7FFF86A0800F550250AD8A431
:1006D80070EF03F072EF03F0B8EF05F04BC0D9FFED
:1006E8004CC0DAFFDE2A000EDD22000E0001776F13
:1006F800000E766F76C059F077C05AF05768586880
:100708004BC0D9FF4CC0DAFFDECFF6FFDDCFF7FFD5
:10071800F86A0800F550630AD8A495EF03F097EF3C
:1007280003F0BEEF03F04BC0D9FF4CC0DAFFDE2A5E
:10073800000EDD224DC0D9FF4EC0DAFFDFCF4FF0EB
:10074800020EDE26DFCF50F0000EDD224FC0D9FFAB
:1007580050C0DAFFDF50AC6F49C022F04AC023F026
:10076800ACC024F03AEC15F022C049F023C04AF09E
:10077800D4EF05F04BC0D9FF4CC0DAFFDECFF6FF4F
:10078800DDCFF7FFF86A0800F550750AD8A4CFEF57
:1007980003F0D1EF03F012EF04F04BC0D9FF4CC0C7
:1007A800DAFFDE2A000EDD224DC0D9FF4EC0DAFF87
:1007B800DFCF4FF0020EDE26DFCF50F0000EDD2235
:1007C8004FC0D9FF50C0DAFFDECF51F0DDCF52F075
:1007D80051C0ADF052C0AEF0AF6BB06BB16BB26B45
:1007E800B36BB46B49C022F04AC023F0ADC024F00B
:1007F800AEC025F0AFC026F0B0C027F0B1C028F0D9
:10080800B2C029F0B3C02AF0B4C02BF0DBEC0DF075
:1008180022C049F023C04AF0D4EF05F04BC0D9FFFD
:100828004CC0DAFFDECF05F0DDCF06F0F20E076E22
:10083800FF0E086E000E0A6E020E096EB0EC12F082
:1008480005500610D8A42BEF04F02DEF04F076EF36
:1008580004F0020E4BC0D9FF4CC0DAFFDE26000EB2
:10086800DD224DC0D9FF4EC0DAFFDFCF4FF0040EB6
:10087800DE26DFCF50F0000EDD224FC0D9FF50C07A
:10088800DAFFDECF51F0DECF52F0DECF53F0DECF0D
:1008980054F051500001AD6F5250AE6F5350AF6FCE
:1008A8005450B06FB16BB26BB36BB46B49C022F0EC
:1008B8004AC023F0ADC024F0AEC025F0AFC026F08A
:1008C800B0C027F0B1C028F0B2C029F0B3C02AF0F8
:1008D800B4C02BF0DBEC0DF022C049F023C04AF085
:1008E800D4EF05F04BC0D9FF4CC0DAFFDECFF6FFDE
:1008F800DDCFF7FFF86A0800F550780AD8B487EF1B
:1009080004F089EF04F09CEF04F04BC0D9FF4CC011
:10091800DAFFDECFF6FFDDCFF7FFF86A0800F55003
:10092800580AD8A49AEF04F09CEF04F0ECEF04F016
:100938004BC0D9FF4CC0DAFFDECFF6FFDDCFF7FFA3
:10094800F86A0800F5CFACF04BC0D9FF4CC0DAFF0D
:10095800DE2A000EDD224DC0D9FF4EC0DAFFDFCF00
:100968004FF0020EDE26DFCF50F0000EDD224FC022
:10097800D9FF50C0DAFFDECF51F0DDCF52F051C0C1
:10098800ADF052C0AEF00001AF6BB06BB16BB26BA3
:10099800B36BB46B49C022F04AC023F0ADC024F059
:1009A800AEC025F0AFC026F0B0C027F0B1C028F027
:1009B800B2C029F0B3C02AF0B4C02BF0ACC02CF000
:1009C80071EC0CF022C049F023C04AF0D4EF05F0D6
:1009D8004BC0D9FF4CC0DAFFDECF05F0DDCF06F003
:1009E800F50E076EFF0E086E000E0A6E020E096EF7
:1009F800B0EC12F005500610D8B405EF05F007EF7B
:100A080005F022EF05F04BC0D9FF4CC0DAFFDECF6E
:100A180005F0DDCF06F0EF0E076EFF0E086E000E34
:100A28000A6E020E096EB0EC12F005500610D8A43A
:100A380020EF05F022EF05F081EF05F04BC0D9FF5C
:100A48004CC0DAFFDECF4FF0DDCF50F0010E4F265D
:100A5800000E50224FC0F6FF50C0F7FFF86A08009A
:100A6800F5CFACF0020E4BC0D9FF4CC0DAFFDE2642
:100A7800000EDD224DC0D9FF4EC0DAFFDFCF4FF0A8
:100A8800040EDE26DFCF50F0000EDD224FC0D9FF66
:100A980050C0DAFFDECF51F0DECF52F0DECF53F098
:100AA800DECF54F051500001AD6F5250AE6F53502D
:100AB800AF6F5450B06FB16BB26BB36BB46B49C0CE
:100AC80022F04AC023F0ADC024F0AEC025F0AFC07C
:100AD80026F0B0C027F0B1C028F0B2C029F0B3C0EA
:100AE8002AF0B4C02BF0ACC02CF071EC0CF022C092
:100AF80049F023C04AF0D4EF05F04BC0D9FF4CC0F1
:100B0800DAFFDECFF6FFDDCFF7FFF86A0800F55011
:100B1800250AD8A492EF05F094EF05F0ABEF05F0A5
:100B28004BC0D9FF4CC0DAFFDE2A000EDD22000ED2
:100B3800086E250E076E49C009F04AC00AF051EC4C
:100B480014F0000E4A6E010E496ED4EF05F04BC04A
:100B5800D9FF4CC0DAFFDE2A000EDD22000E4A6EF5
:100B6800000E496ED4EF05F04BC0D9FF4CC0DAFF38
:100B7800DECFF6FFDDCFF7FFF86A0800F550076E05
:100B8800086A49C009F04AC00AF051EC14F04BC099
:100B9800D9FF4CC0DAFFDE2A000EDD22A5EF05F0F2
:100BA80012002F50800B386E2F502F243A6E2EAE25
:100BB800E0EF05F0E2EF05F0E3EF05F03A803A5098
:100BC800D8B4E9EF05F0EBEF05F000EF06F03A28AE
:100BD800D8A4F1EF05F0F3EF05F0FBEF05F0000EF8
:100BE8002C6E000E2D6E000E2E6E000E2F6E2E8EA9
:100BF800000E2F6E08EF06F0000E2C6E000E2D6E04
:100C0800000E2E6E000E2F6E3350800B396E38504A
:100C18003918D8B412EF06F014EF06F015EF06F005
:100C2800388C33503324396E32AE1DEF06F01FEF87
:100C380006F020EF06F039803950D8B426EF06F0D8
:100C480028EF06F03DEF06F03928D8A42EEF06F07D
:100C580030EF06F038EF06F0000E306E000E316E01
:100C6800000E326E000E336E328E000E336E45EF7C
:100C780006F0000E306E000E316E000E326E000E61
:100C8800336E3A50395CD8B04CEF06F04EEF06F0B0
:100C980075EF06F038AC53EF06F055EF06F057EF56
:100CA80006F0800E381A3AC03BF039C03AF03BC023
:100CB80039F02CC03BF030C02CF03BC030F02DC0D8
:100CC8003BF031C02DF03BC031F02EC03BF032C0BC
:100CD8002EF03BC032F02FC03BF033C02FF03BC0AA
:100CE80033F0000E3B6E3A5039C034F0356A345E4A
:100CF800000E355A35BE8AEF06F0355009E11A0E56
:100D0800345CD8A08AEF06F08CEF06F0C3EF06F04B
:100D18002C502D102E102F10D8A495EF06F098EF18
:100D280006F0010E99EF06F0000E3B6E000E2C6ED9
:100D3800000E2D6E000E2E6E000E2F6E39C03AF08A
:100D4800CCEF06F03BA0ABEF06F0ADEF06F0B3EF4B
:100D580006F0D8903B3001093B6EB5EF06F0D8900D
:100D68003B322CA0BAEF06F0BCEF06F0BDEF06F060
:100D78003B8E2F342F322E322D322C323A2A3950D4
:100D88003A5CD8A0CAEF06F0CCEF06F0A6EF06F062
:100D980038BCD1EF06F0D3EF06F013EF07F03A5066
:100DA800D8A4D9EF06F0DBEF06F0E5EF06F0000E69
:100DB8002C6E000E2D6E000E2E6E000E2F6E34EF70
:100DC80008F030502C2631502D2232502E2233502C
:100DD8002F222FA0F2EF06F0F4EF06F0A0EF07F0B5
:100DE8003BA0F9EF06F0FBEF06F001EF07F0D89013
:100DF8003B3001093B6E03EF07F0D8903B322CA043
:100E080008EF07F00AEF07F00BEF07F03B8E2F34DF
:100E18002F322E322D322C323A2AA0EF07F03050E2
:100E28002C5C31502D5832502E582F50800A346E79
:100E38003350800A3458D8B024EF07F026EF07F073
:100E480051EF07F02C50305C346E2D503158356E10
:100E58002E503258366E2F503358376EFF0E3424CA
:100E68002C6EFF0E35202D6EFF0E36202E6EFF0ED7
:100E780037202F6E800E381A3B6C3B50D8A447EFB2
:100E880007F049EF07F059EF07F0010E2C26000E86
:100E98002D222E222F2259EF07F030502C5E315090
:100EA8002D5A32502E5A33502F5A2C502D102E10A6
:100EB8002F10D8A462EF07F064EF07F099EF07F05E
:100EC8003B50D8A46AEF07F06CEF07F099EF07F0F2
:100ED800000E2C6E000E2D6E000E2E6E000E2F6E64
:100EE80034EF08F0D8902C362D362E362F363BAE00
:100EF80080EF07F082EF07F083EF07F02C803BA02C
:100F080088EF07F08AEF07F08EEF07F0D8803B36BE
:100F180090EF07F0D8903B363A50D8B496EF07F0E8
:100F280098EF07F099EF07F03A062EAE9EEF07F01C
:100F3800A0EF07F076EF07F0000E396E3BAEA7EF93
:100F480007F0A9EF07F0C1EF07F03BC034F07F0EC0
:100F58003416D8B4B2EF07F0B4EF07F0B8EF07F0E3
:100F6800010E396EC1EF07F02CA0BDEF07F0BFEFFF
:100F780007F0C1EF07F0B4EF07F03950D8B4C7EF66
:100F880007F0C9EF07F0F4EF07F0010E2C26000E6A
:100F98002D222E222F222FA0D4EF07F0D6EF07F014
:100FA800F4EF07F02CC034F02DC035F02EC036F029
:100FB8002FC037F03734373236323532343234C016
:100FC8002CF035C02DF036C02EF037C02FF03A285F
:100FD800D8B4F1EF07F0F3EF07F0F4EF07F03A2A8F
:100FE8003A28D8B4FAEF07F0FCEF07F004EF08F05E
:100FF8003A50D8A402EF08F004EF08F016EF08F012
:10100800000E2C6E000E2D6E000E2E6E000E2F6E32
:101018003A50D8A412EF08F014EF08F016EF08F0D1
:10102800000E386E3AA01BEF08F01DEF08F020EF15
:1010380008F02E8E21EF08F02E9ED8903A302F6EB1
:1010480038AE29EF08F02BEF08F02CEF08F02F8EC0
:101058002CC02CF02DC02DF02EC02EF02FC02FF05C
:10106800120067EC15F06650F00B0909666E9BECF0
:1010780017F00009D8B443EF08F045EF08F03BEF4C
:1010880008F0EFEC16F00001E76F1DEF0AF0000E14
:10109800896F000E8A6FB90EBB6FFD0EBC6F04EC32
:1010A80017F0000E0001E86F18EC17F00001E85186
:1010B800020D000EF324D96E020EF420DA6E7AC007
:1010C800DEFF7BC0DDFFE851020D000EF324D96E70
:1010D800020EF420DA6EDE50DE10D8A476EF08F0A7
:1010E80078EF08F07AEF08F08EEF08F0E8A17FEFCC
:1010F80008F081EF08F084EF08F08A2B85EF08F0FC
:10110800892BE82B410EE8658CEF08F08EEF08F08C
:1011180058EF08F0F70EBB6FFE0EBC6F8AC0BDF02B
:10112800BE6B04EC17F0D80E0001BB6FFE0EBC6F4F
:1011380089C0BDF0BE6B04EC17F03BEF08F02B0E36
:10114800BB6FFE0EBC6F04EC17F0010EB9EC11F08A
:101158006AEC16F0BEEC15F03BEF08F0530EBB6FCF
:10116800FE0EBC6F04EC17F0000EB9EC11F0000E87
:1011780020EC00F0D1C070F0D2C071F0D3C072F092
:10118800D4C073F0AC0E0001BB6FFF0EBC6F70C013
:10119800BDF071C0BEF072C0BFF073C0C0F004EC07
:1011A80017F03BEF08F0330EBB6FFF0EBC6F04EC7B
:1011B80017F0000E0001E86F650EBB6FFF0EBC6FE5
:1011C800010EE825BD6FBE6B000EBE2304EC17F0C0
:1011D800000EB9EC11F0000E20EC00F0D1C070F058
:1011E800D2C071F0D3C072F0D4C073F0AB0E00015E
:1011F800BB6FFF0EBC6F70C0BDF071C0BEF072C097
:10120800BFF073C0C0F004EC17F00001E851040D02
:10121800600EF324D96E000EF420DA6E70C0DEFF83
:1012280071C0DEFF72C0DEFF73C0DEFFE82B030E65
:10123800E86521EF09F023EF09F0E0EF08F0980ED8
:10124800BB6FFE0EBC6F04EC17F03BEF08F0770E97
:10125800BB6FFE0EBC6FE7C0BDF0BE6B04EC17F0B1
:101268000001E851E36FE46BD890E337E437D89096
:10127800E337E4375C0EE325D96E000EE421DA6E1D
:10128800DECF70F0DECF71F0DECF72F0DECF73F01C
:101298006650F00B0209666E010E886F000E876FAC
:1012A8008751D8B45AEF09F05CEF09F054EF09F010
:1012B8006650F00B0909666E3BEF08F0280EBB6F0D
:1012C800FD0EBC6F000EBE6F080EBD6F04EC17F06C
:1012D800840E056E010E066E000E086E000E076E77
:1012E800000E0A6E200E096E7CEC10F0B90E00019B
:1012F800BB6FFF0EBC6F04EC17F0000E0001E86F27
:101308009BEC17F00009D8B48CEF09F08EEF09F0C8
:1013180090EF09F0B7EF09F0000EB9EC11F0000EEC
:1013280020EC00F0D1C070F0D2C071F0D3C072F0E0
:10133800D4C073F0C60E0001BB6FFF0EBC6F70C047
:10134800BDF071C0BEF072C0BFF073C0C0F004EC55
:1013580017F00001E82B070EE865B5EF09F0B7EFC5
:1013680009F084EF09F0EFEC16F0150E0001BB6FE1
:10137800FF0EBC6F04EC17F03BEF08F0B80EBB6F24
:10138800FE0EBC6F04EC17F0000E0001E86FE85188
:10139800040D840EF324D96E010EF420DA6EDE50AB
:1013A800DE10DE10DE10D8A4DCEF09F0DEEF09F065
:1013B800E0EF09F0F0EF09F0D10EBB6FFF0EBC6F44
:1013C80004EC17F00001E82B070EE865EEEF09F0D2
:1013D800F0EF09F0CBEF09F04D0EBB6FFF0EBC6FBD
:1013E80004EC17F03BEF08F0000EE86FE851040D2D
:1013F800600EF324D96E000EF420DA6EDECFD1F041
:10140800DECFD2F0DECFD3F0DECFD4F09CEC14F0F8
:101418000001E82B030EE86514EF0AF016EF0AF056
:10142800FAEF09F03BEF08F0E7518DEC13F03BEFD2
:1014380008F0E751E36FE46BE451000AD8B427EFF2
:101448000AF018EF0AF0E351310AD8B42BEF09F08B
:10145800030AD8B42BEF09F0010AD8B42BEF09F02E
:10146800070AD8B42BEF09F0670AD8B4C2EF09F01D
:10147800310AD8B4F8EF09F0010AD8B44BEF08F0F4
:10148800070AD8B4B2EF08F00D0AD8B4AEEF08F0E6
:10149800050AD8B4D7EF08F01F0AD8B462EF09F0EC
:1014A800070AD8B4A3EF08F018EF0AF01EEF00F00F
:1014B8001650800B1F6E16501624256E15AE67EF5A
:1014C8000AF069EF0AF06AEF0AF025802550D8B4CF
:1014D80070EF0AF072EF0AF085EF0AF02528D8A419
:1014E80078EF0AF07AEF0AF082EF0AF0000E136E36
:1014F800000E146E000E156E000E166E158E8DEF12
:101508000AF0000E136E000E146E000E156E000E1B
:10151800166E1A50800B1F1A1A501A24246E19AE10
:1015280098EF0AF09AEF0AF09BEF0AF02480245013
:10153800D8B4A1EF0AF0A3EF0AF0B6EF0AF0242816
:10154800D8A4A9EF0AF0ABEF0AF0B3EF0AF0000E47
:10155800176E000E186E000E196E000E1A6E198E98
:10156800BEEF0AF0000E176E000E186E000E196E10
:10157800000E1A6E2450D8B4C4EF0AF0C6EF0AF071
:10158800CEEF0AF02550D8A4CCEF0AF0CEEF0AF03F
:10159800D8EF0AF0000E136E000E146E000E156ED2
:1015A800000E166E70EF0CF019501302F3CF2AF0EC
:1015B800F4CF2BF02A50206E216A226A236A2B501E
:1015C800266E276A286A296A18501402F3CF2AF06F
:1015D800F4CF2BF02A502026000E2122222223228B
:1015E8002B502626000E27222822292217501502C2
:1015F800F3CF2AF0F4CF2BF02A502026000E212218
:10160800222223222B502626000E27222822292296
:1016180022C023F021C022F020C021F0206A1750F8
:101628001402F3CF2AF0F4CF2BF02A5020262B50A7
:101638002122000E2222000E232218501302F3CF7B
:101648002AF0F4CF2BF02A5020262B502122000E0E
:101658002222000E232222C023F021C022F020C023
:1016680021F0206A17501302F3CF2AF0F4CF2BF0A1
:101678002A5020262B502122000E2222000E23223F
:1016880019501402F3CF2AF0F4CF2BF02A50262653
:101698002B502722000E2822000E2922185015024E
:1016A800F3CF2AF0F4CF2BF02A5026262B502722EE
:1016B800000E2822000E292219501502F3CF2AF015
:1016C800F4CF2BF02A501B6E2B501C6E1D6A1E6A1D
:1016D8001DC01EF01CC01DF01BC01CF01B6A1B5057
:1016E80026261C5027221D5028221E50292220C0A1
:1016F8001BF021C01CF022C01DF023C01EF0190EE3
:101708008BEF0BF0D8901E321D321C321B32E82EA4
:1017180086EF0BF01B5026261C5027221D5028222E
:101728001E50292222C023F021C022F020C021F01F
:10173800206A245025C01BF01C6A1B26000E1C22A0
:10174800820E1B242A6EFF0E1C202B6EC1EF0BF09D
:10175800D890263627362836293623AEB6EF0BF032
:10176800B8EF0BF0B9EF0BF02680D8902036213671
:10177800223623362A06D8A02B0628AEC6EF0BF051
:10178800C8EF0BF0ACEF0BF0000E246E23AECFEFDA
:101798000BF0D1EF0BF0F5EF0BF0FF0E20141B6EE2
:1017A800FF0E21141C6EFF0E22141D6E7F0E2314D3
:1017B8001E6E1B501C101D101E10D8B4E6EF0BF047
:1017C800E8EF0BF0ECEF0BF0010E246EF5EF0BF0E9
:1017D80026A0F1EF0BF0F3EF0BF0F5EF0BF0E8EFCD
:1017E8000BF02450D8B4FBEF0BF0FDEF0BF021EF1A
:1017F8000CF0010E2626000E27222822292229A0D5
:1018080008EF0CF00AEF0CF021EF0CF026C01BF0EB
:1018180027C01CF028C01DF029C01EF01E341E323F
:101828001D321C321B321BC026F01CC027F01DC005
:1018380028F01EC029F02A4A2B2A2BBE2CEF0CF0C8
:101848002B5008E12A28D8A02CEF0CF02EEF0CF032
:1018580038EF0CF0000E266E000E276E800E286EF4
:101868007F0E296E66EF0CF02BBE45EF0CF02B5067
:1018780006E12A04D8B043EF0CF045EF0CF051EF25
:101888000CF0000E266E000E276E000E286E000E5D
:10189800296E000E1F6E66EF0CF02AC025F0FF0EB1
:1018A8002616FF0E27167F0E2816000E291625A0CD
:1018B80060EF0CF062EF0CF063EF0CF0288ED8901C
:1018C8002530296E1F50291226C013F027C014F0A6
:1018D80028C015F029C016F0120058BE76EF0CF09B
:1018E80078EF0CF079EF0CF0599258BE86EF0CF0B7
:1018F800585006E15704D8B084EF0CF086EF0CF08E
:101908008CEF0CF0000E3A6E010E396E90EF0CF071
:1019180057C039F058C03AF076C03BF077C03CF079
:1019280059A899EF0CF09BEF0CF09FEF0CF0FE0E0E
:101938003B26FF0E3C2224C03DF025C03EF026C0C9
:101948003FF027C040F028C041F029C042F02AC02B
:1019580043F02BC044F0000E466E1F0E456E000E7D
:101968000001AB6F6BEF0DF04506D8A046060F0ED1
:101978003D14476E486A48BECBEF0CF0485009E169
:101988000A0E475CD8A0CBEF0CF0CDEF0CF0D5EFEA
:101998000CF0570E4724476E000E4820486EDBEFC8
:1019A8000CF0300E4724476E000E4820486EBF0EDC
:1019B8002D6EFF0E2E6E2C502F6E306A2D502F2656
:1019C8002E50302230500AE11A0E2F5CD8A0EFEFCB
:1019D8000CF0F2EF0CF0010EF3EF0CF0000E356E88
:1019E800366A35503610D8B4FCEF0CF0FEEF0CF028
:1019F8002EEF0DF09F0E2D6EFF0E2E6E200E47104F
:101A08002F6E000E4810306E2D502F262E5030228B
:101A180030500AE11A0E2F5CD8A015EF0DF018EF20
:101A28000DF0010E19EF0DF0000E376E386A3750C1
:101A38003810D8B422EF0DF024EF0DF02EEF0DF092
:101A480047C00BF048C00CF00BEC15F00BC047F08A
:101A58000CC048F08C0E4524D96E000E4620DA6E74
:101A680047C0DFFF3906D8A03A063B06D8A03C0697
:101A78003DC02DF03EC02EF03FC02FF040C030F0EA
:101A880041C031F042C032F043C033F044C034F0BA
:101A9800050E58EF0DF0D8903432333232323132ED
:101AA80030322F322E322D32E82E4FEF0DF02DC06E
:101AB8003DF02EC03EF02FC03FF030C040F031C0A6
:101AC80041F032C042F033C043F034C044F046BE67
:101AD80077EF0DF0465009E1020E455CD8A077EF8C
:101AE8000DF079EF0DF0A9EF0DF03D503E103F10CD
:101AF80040104110421043104410D8A486EF0DF056
:101B080088EF0DF0B8EF0CF03ABE95EF0DF03A50B3
:101B180006E13904D8B093EF0DF095EF0DF0B8EF6A
:101B28000CF03CBEA0EF0DF03C5008E13B04D8A0FF
:101B3800A0EF0DF0A2EF0DF0A9EF0DF059B2A7EF4D
:101B48000DF0A9EF0DF0B8EF0CF059A8AEEF0DF0BD
:101B5800B0EF0DF0C6EF0DF04506D8A046068C0E86
:101B68004524D96E000E4620DA6E2CC0DFFF4506EC
:101B7800D8A046068C0E4524D96E000E4620DA6E93
:101B8800300EDF6E22C017F023C018F08C0E4524EB
:101B9800196E000E46201A6E3BC01BF03CC01CF0AC
:101BA800F0EC13F017C022F018C023F0120058BE52
:101BB800E0EF0DF0E2EF0DF0E3EF0DF0599258BEB3
:101BC800F0EF0DF0585006E15704D8B0EEEF0DF0E5
:101BD800F0EF0DF0F6EF0DF0000E356E010E346EDD
:101BE800FAEF0DF057C034F058C035F076C036F033
:101BF80077C037F024C038F025C039F026C03AF055
:101C080027C03BF028C03CF029C03DF02AC03EF078
:101C18002BC03FF0000E416E1F0E406E000E0001FB
:101C2800AB6F8DEF0EF04006D8A041068C0E402415
:101C3800D96E000E4120DA6E38C005F039C006F0C2
:101C48003AC007F03BC008F03CC009F03DC00AF0BC
:101C58003EC00BF03FC00CF00A0E0D6E000E0E6E6B
:101C6800000E0F6E000E106E000E116E000E126E3A
:101C7800000E136E000E146E25EC13F005C02CF048
:101C880006C02DF007C02EF008C02FF009C030F0B4
:101C98000AC031F00BC032F00CC033F02C50300FBA
:101CA800DF6E3406D8A035063606D8A0370638C009
:101CB80005F039C006F03AC007F03BC008F03CC058
:101CC80009F03DC00AF03EC00BF03FC00CF00A0E10
:101CD8000D6E000E0E6E000E0F6E000E106E000ED2
:101CE800116E000E126E000E136E000E146E38EC9C
:101CF80012F005C038F006C039F007C03AF008C045
:101D08003BF009C03CF00AC03DF00BC03EF00CC0EF
:101D18003FF040504110D8B494EF0EF096EF0EF01B
:101D2800C6EF0EF0385039103A103B103C103D10F9
:101D38003E103F10D8A4A3EF0EF0A5EF0EF017EF5A
:101D48000EF035BEB2EF0EF0355006E13404D8B0CF
:101D5800B0EF0EF0B2EF0EF017EF0EF037BEBDEF9A
:101D68000EF0375008E13604D8A0BDEF0EF0BFEFF3
:101D78000EF0C6EF0EF059B2C4EF0EF0C6EF0EF03B
:101D880017EF0EF022C017F023C018F08C0E402475
:101D9800196E000E41201A6E36C01BF037C01CF0B9
:101DA800F0EC13F017C022F018C023F012000D6EEB
:101DB8000D50D8B4E2EF0EF0E4EF0EF006EF0FF09E
:101DC80008BEEBEF0EF0E9EF0EF006EF0FF005C0DE
:101DD80009F006C00AF007C00BF008C00CF0091E95
:101DE8000A1E0B1E0C1E092A000E0A220B220C22A8
:101DF80009C00FF00AC010F00BC011F00CC012F0AF
:101E08000EEF0FF005C00FF006C010F007C011F07C
:101E180008C012F00550061007100810D8A417EFD4
:101E28000FF019EF0FF023EF0FF0000E056E000E04
:101E3800066E000E076E000E086EB4EF0FF0960ED9
:101E48000E6E2DEF0FF00E2AD8901232113210328A
:101E58000F32000E0F14096E000E10140A6E000ED9
:101E680011140B6EFE0E12140C6E09500A100B1092
:101E78000C10D8A442EF0FF044EF0FF027EF0FF04B
:101E880052EF0FF00E2A010E0F26000E102211221B
:101E98001222D8901232113210320F32000E0F1463
:101EA800096E000E10140A6E000E11140B6EFF0E50
:101EB80012140C6E09500A100B100C10D8A467EFFE
:101EC8000FF069EF0FF046EF0FF071EF0FF00E060D
:101ED800D8900F3610361136123611BE76EF0FF045
:101EE80078EF0FF080EF0FF0020E0E607EEF0FF02C
:101EF80080EF0FF06BEF0FF00EB085EF0FF087EF6C
:101F08000FF088EF0FF0119ED8900E320EC009F036
:101F18000A6A0B6A0C6A09C00CF00B6A0A6A096A39
:101F280009500F120A5010120B5011120C501212B5
:101F38000D50D8B4A2EF0FF0A4EF0FF0ACEF0FF0F4
:101F480008BEABEF0FF0A9EF0FF0ACEF0FF0128E59
:101F58000FC005F010C006F011C007F012C008F05D
:101F6800120000018851D8B4BCEF0FF0BEEF0FF09B
:101F78005FEF10F042EF10F0200E856F000E846FB7
:101F8800010E866F5FEF10F08451D8A4CEEF0FF0EA
:101F9800D0EF0FF0DAEF0FF0020E866FEBC078F09B
:101FA800ECC079F0000E846F5FEF10F0E9C078F0B4
:101FB800EAC079F0010E846F5FEF10F0855170C0B0
:101FC80001F071C002F072C003F073C004F0E82A97
:101FD800F3EF0FF0D8900432033202320132E82EC8
:101FE800EEEF0FF001A0FBEF0FF0FDEF0FF016EF93
:101FF80010F08451D8A403EF10F005EF10F00DEFA6
:1020080010F0F1C078F0F2C079F0010E846F2AEF79
:1020180010F0F3C078F0F4C079F0000E846F8507F3
:102028002AEF10F08451D8A41CEF10F01EEF10F026
:1020380024EF10F0EDC078F0EEC079F009EF10F061
:10204800EFC078F0F0C079F011EF10F08505D8A452
:1020580030EF10F032EF10F05FEF10F0030E866FE4
:102068005FEF10F0F5C078F0F6C079F0000E866FDB
:10207800000E886F010E876F5FEF10F08651016EBA
:10208800026A0250000AD8B44CEF10F05FEF10F06B
:102098000150000AD8B4C0EF0FF0010AD8B4C8EF55
:1020A8000FF0030AD8B4E2EF0FF0010AD8B436EF04
:1020B80010F05FEF10F078C001F079C002F0D8900E
:1020C80002320132D89002320132D8900232013203
:1020D800040E036ED89002320132032E6EEF10F018
:1020E800CE500124676ECF500220686EA190120076
:1020F80005C00FF006C010F009500A10D8A487EFE9
:1021080010F089EF10F08BEF10F036EF11F00FC0E0
:10211800D9FF10C0DAFF07C0DFFF09500F240B6E8C
:102128000A5010200C6EFF0E0B24D96EFF0E0C20E7
:10213800DA6E07C0DFFF0A5007E1030E095CD8B06A
:10214800A8EF10F0AAEF10F0ACEF10F036EF11F096
:1021580020EE01F00F50D9261050DA2207C0DFFF19
:1021680020EE02F00F50D9261050DA2207C0DFFF08
:1021780009500F240B6E0A5010200C6EFE0E0B2413
:10218800D96EFF0E0C20DA6E07C0DFFF09500F244E
:102198000B6E0A5010200C6EFD0E0B24D96EFF0E2C
:1021A8000C20DA6E07C0DFFF0A5007E1070E095C52
:1021B800D8B0E1EF10F0E3EF10F0E5EF10F036EFF4
:1021C80011F020EE03F00F50D9261050DA2207C084
:1021D800DFFF09500F240B6E0A5010200C6EFC0E06
:1021E8000B24D96EFF0E0C20DA6E07C0DFFF0A50F1
:1021F80007E1090E095CD8B004EF11F006EF11F001
:1022080008EF11F036EF11F00FC00BF010C00CF012
:102218000B1E0C1E0B4A0C2A030E0B140D6E0E6AB5
:102228000D500F260E5010220D50095E0E500A5AFE
:10223800FC0E0916FF0E0A162DEF11F00FC0D9FF7C
:1022480010C0DAFF07C0DFFF0906D8A00A060F4A48
:10225800102A09500A10D8A434EF11F036EF11F003
:1022680022EF11F01200000E44144C6E000E4514BB
:102278004D6E800E46144E6E7F0E47144F6E4C50B6
:102288004D104E104F10D8A44CEF11F04EEF11F036
:1022980056EF11F0000E446E000E456E000E466EAD
:1022A800000E476E000E48144C6E000E49144D6E19
:1022B800800E4A144E6E7F0E4B144F6E4C504D10CC
:1022C8004E104F10D8A46BEF11F06DEF11F075EFB1
:1022D80011F0000E486E000E496E000E4A6E000E98
:1022E8004B6E47AE7AEF11F07CEF11F085EF11F0ED
:1022F800446C451ED8B0452A461ED8B0462A800EE2
:1023080047564BAE8AEF11F08CEF11F095EF11F0B4
:10231800486C491ED8B0492A4A1ED8B04A2A800EAD
:102328004B56000E441A000E451A000E461A800E2F
:10233800471A000E481A000E491A000E4A1A800E53
:102348004B1A4850445C495045584A5046584B50DF
:102358004758D8B0B2EF11F0B4EF11F0B7EF11F061
:10236800D890B8EF11F0D88012000001DB6FB1EC03
:1023780017F0000E0001DC6F18EC17F00001DC51BB
:10238800020D000EF324D96E020EF420DA6E7AC024
:10239800DEFF7BC0DDFFDC2B410EDC65D6EF11F0E4
:1023A800D8EF11F0C0EF11F0000EDC6FFF0ED16F07
:1023B8000F0ED26FDC51020D000EF324D96E020EFF
:1023C800F420DA6EDECFD3F0DDCFD4F0DC51D56F58
:1023D800D66BD890D537D637020ED525D96E020ED2
:1023E800D621DA6EDECFD7F0DDCFD8F0D351D75F64
:1023F800D451D85BD890D831DA6FD731D96FD15151
:10240800D917D251DA17DC51020D000EF324D96E18
:10241800010EF420DA6ED9C0DEFFDAC0DDFFDB5131
:10242800D8B419EF12F01BEF12F02DEF12F0DA0EFC
:10243800BB6FFF0EBC6FDC51020D000EF324D96E8A
:10244800010EF420DA6EDECFBDF0DDCFBEF004EC75
:1024580017F00001DC2B400EDC6535EF12F037EF8A
:1024680012F0DAEF11F0120020EE15F0070EDE6A16
:10247800E806FDE20D500E100F101010111012108A
:1024880013101410D8B44BEF12F04DEF12F09FEF69
:1024980012F0010E1D6E5BEF12F0D8900D360E365D
:1024A8000F36103611361236133614361D2A14AE6E
:1024B80060EF12F062EF12F051EF12F0D89015367B
:1024C80016361736183619361A361B361C360D507E
:1024D800055C0E5006580F500758105008581150F8
:1024E800095812500A5813500B5814500C58D8A0B9
:1024F80080EF12F082EF12F093EF12F00D50055EAC
:102508000E50065A0F50075A1050085A1150095ABF
:1025180012500A5A13500B5A14500C5A1580D8905E
:10252800143213321232113210320F320E320D328F
:102538001D2E62EF12F015C005F016C006F017C088
:1025480007F018C008F019C009F01AC00AF01BC03B
:102558000BF01CC00CF0120005C00CF006C00DF00A
:1025680007C00EF008C00FF00906D8A00A0609280F
:1025780006E10A28D8A4C3EF12F0C5EF12F0D2EF93
:1025880012F0000E066E000E056E24EF13F00C4AD2
:102598000D2A0E4A0F2A0906D8A00A060CC0F6FF13
:1025A8000DC0F7FFF86A0800F5500009D8B4DFEF4E
:1025B80012F0E1EF12F010EF13F00EC0F6FF0FC0AB
:1025C800F7FFF86A0800F5500009D8B4EEEF12F0EA
:1025D800F0EF12F010EF13F009500A10D8B4F7EF2B
:1025E80012F0F9EF12F010EF13F00CC0F6FF0DC067
:1025F800F7FFF86A0800F5CF0BF00EC0F6FF0FC022
:10260800F7FFF86A0800F5500B18D8B40EEF13F06E
:1026180010EF13F0CBEF12F00CC0F6FF0DC0F7FF70
:10262800F86A0800F5CF0BF00EC0F6FF0FC0F7FFF1
:10263800F86A0800F5500B5C056E066AD8A0060615
:1026480012000D500E100F10101011101210131050
:102658001410D8B432EF13F034EF13F07CEF13F00A
:10266800010E156E42EF13F0D8900D360E360F3668
:1026780010361136123613361436152A14AE47EFB3
:1026880013F049EF13F038EF13F00D50055C0E50BE
:1026980006580F5007581050085811500958125032
:1026A8000A5813500B5814500C58D8A05EEF13F06A
:1026B80060EF13F070EF13F00D50055E0E50065AE0
:1026C8000F50075A1050085A1150095A12500A5AF6
:1026D80013500B5A14500C5AD89014321332123229
:1026E800113210320F320E320D32152E49EF13F01F
:1026F80005C005F006C006F007C007F008C008F0DE
:1027080009C009F00AC00AF00BC00BF00CC00CF0AD
:1027180012000001D36FD1EF13F091EC17F0EFEF37
:1027280013F0E20EBB6FFF0EBC6F04EC17F0EFEF77
:1027380013F0000ED46FB70EBB6FFF0EBC6F04EC26
:1027480017F00001D42B270ED465ADEF13F0AFEFCF
:1027580013F09FEF13F0FF00EFEF13F0000ED46FAC
:10276800B70EBB6FFF0EBC6F04EC17F00001D42B43
:10277800270ED465C2EF13F0C4EF13F0B4EF13F0D3
:10278800EFEF13F07B0EBB6FFF0EBC6FD3C0BDF035
:10279800BE6B04EC17F0EFEF13F00001D351D16FCB
:1027A800D26BD251000AD8B4DCEF13F0C6EF13F0A5
:1027B800D1513F0AD8B491EF13F0650AD8B49DEF10
:1027C80013F0350AD8B495EF13F0150AD8B4B2EF60
:1027D80013F0C6EF13F0120059A0F5EF13F0F7EF5E
:1027E80013F001EF14F019C010F01AC011F017C05F
:1027F80012F018C013F00AEC16F01CBE06EF14F025
:1028080008EF14F00EEF14F01BC020F01CC021F0EC
:1028180012EF14F0000E216E000E206E000E1F6ED7
:10282800000E1E6E24EF14F0000E086E200E076EC8
:1028380017C009F018C00AF051EC14F01E4A1F2AFC
:1028480020501E5C1F50800A1D6E2150800A1D58A2
:10285800D8A031EF14F033EF14F018EF14F059B09A
:1028680038EF14F03AEF14F044EF14F019C010F0F8
:102878001AC011F017C012F018C013F00AEC16F0C5
:1028880019C005F01AC006F0BFEC16F02050052458
:10289800176E21500620186E120009500A10D8B47D
:1028A80058EF14F05AEF14F063EF14F009500A10BF
:1028B800D8A461EF14F063EF14F068EF14F0075038
:1028C800C5EC17F09BEF14F020EE04F00950D92660
:1028D8000A50DA22DE50DE10D8B475EF14F077EF24
:1028E80014F092EF14F020EE04F00950D9260A50A3
:1028F800DA2210EE02F00950E1260A50E222DE50F8
:10290800E65CE650800A0F6EDE50800A0F58D8B099
:1029180090EF14F092EF14F09BEF14F020EE02F019
:102928000950D9260A50DA22DE2A000EDD221200CA
:10293800000E0001DA6F1F0ED96FF80EBB6FFF0E85
:10294800BC6FD951D1C0D5F0D2C0D6F0D3C0D7F022
:10295800D4C0D8F0E82AB6EF14F0D890D833D733DB
:10296800D633D533E82EB1EF14F0010ED515BD6F6F
:10297800000ED615BE6F000ED715BF6F000ED81506
:10298800C06F04EC17F00001D907D8A0DA07DABF46
:10299800D2EF14F0D0EF14F0A1EF14F0B60EBB6F25
:1029A800FF0EBC6F04EC17F01200B7C055F0B8C0AA
:1029B80056F0000E0001756F000E746FF7EF14F0FB
:1029C800B5C049F0B6C04AF0550E4B6E000E4C6EBD
:1029D800B9C04DF0BAC04EF05FEC03F049500001A9
:1029E80074274A50752355C0F6FF56C0F7FFF86A9A
:1029F8000800F5500009D8A404EF15F006EF15F00B
:102A0800E4EF14F074C0B5F075C0B6F012009F0E74
:102A18000D6EFF0E0E6E0BC00FF00CC010F00D50B7
:102A28000F260E50102210500AE11A0E0F5CD8A083
:102A380020EF15F023EF15F0010E24EF15F0000E2E
:102A4800116E126A11501210D8B42DEF15F02FEF35
:102A580015F035EF15F05F0E0B140B6E0C6A39EF9D
:102A680015F00BC00BF00CC00CF0120000017651F1
:102A78007711D8A442EF15F044EF15F04AEF15F09E
:102A880076C025F077C026F050EF15F0FF0E7625BA
:102A9800256EFF0E7721266E24C08CF0000E8D6FF8
:102AA80022C017F023C018F08C0E196E000E1A6E93
:102AB80025C01BF026C01CF0F0EC13F017C022F064
:102AC80018C023F012003BEC17F087EC17F066EC07
:102AD80017F0F28EF28C9C0E0001BB6FFF0EBC6FDC
:102AE80004EC17F08C0E0001BB6FFF0EBC6F04ECFA
:102AF80017F0780E0001BB6FFD0EBC6F04EC17F0E9
:102B0800F90E0001BB6FFD0EBC6F04EC17F0EA0E66
:102B18000001BB6FFF0EBC6F04EC17F012004A0EE9
:102B2800F66E2F0EF76E000EF86E00EEE9F010EE5E
:102B38000EF00900F5CFEEFFE550E150FAE102EEA4
:102B480000F0840EEE6AE806FDE101EE00F0A40E46
:102B5800EE6AE806FDE100EE60F04C0EEE6AE8066B
:102B6800FDE15A6A596A586A576A5B905B9200019C
:102B780035EF08F0300E0001BB6FFC0EBC6FE9C0EA
:102B8800BDF0EAC0BEF0EBC0BFF0ECC0C0F0EDC0D5
:102B9800C1F0EEC0C2F0EFC0C3F0F0C0C4F0F1C0A5
:102BA800C5F0F2C0C6F0F3C0C7F0F4C0C8F0F5C075
:102BB800C9F0F6C0CAF08A518925CB6FCC6BCC37E7
:102BC80004EC17F01200000E401A000E411A000E15
:102BD800421A800E431A3CC02CF03DC02DF03EC076
:102BE8002EF03FC02FF040C030F041C031F042C05D
:102BF80032F043C033F0D5EC05F02CC03CF02DC0CA
:102C08003DF02EC03EF02FC03FF01200000E166EB1
:102C1800000E156E1BEF16F014C007F0086A12C0FC
:102C280009F013C00AF051EC14F0154A162A155091
:102C38001024D96E16501120DA6EDF50146E14501D
:102C4800D8A429EF16F02BEF16F010EF16F01200AB
:102C5800080EB86E900EAB6E240EAC6E820EAF6E80
:102C6800060EB06E000E056E000E066EBBEC17F079
:102C7800000E056E000E066EB6EC17F0000E056E1F
:102C8800000E066EC0EC17F0000E00018B6F1200EC
:102C98009F0E076EFF0E086E200E0510096E000EBF
:102CA80006100A6E0750092608500A220A500AE13F
:102CB8001A0E095CD8A063EF16F066EF16F0010E45
:102CC80067EF16F0000E056E066A120000C1E9F003
:102CD80001C1EAF002C1EBF003C1ECF004C1EDF070
:102CE80005C1EEF006C1EFF007C1F0F008C1F1F040
:102CF80009C1F2F00AC1F3F00BC1F4F040C1F5F0DC
:102D080041C1F6F012009F0E076EFF0E086E05C057
:102D180009F006C00AF00750092608500A220A508E
:102D28000AE11A0E095CD8A09CEF16F09FEF16F086
:102D3800010EA0EF16F0000E056E066A1200BF0E17
:102D4800076EFF0E086E05C009F006C00AF00750AE
:102D5800092608500A220A500AE11A0E095CD8A06E
:102D6800B8EF16F0BBEF16F0010EBCEF16F0000E30
:102D7800056E066A120005C007F006C008F0C7EF26
:102D880016F0054A062A05C0D9FF06C0DAFFDF504B
:102D9800D8A4D1EF16F0D3EF16F0C5EF16F0075010
:102DA800055C056E08500658066E1200000E896E06
:102DB800000E8A6E000E8B6E92689368BD0E946E3C
:102DC800380E0F013A6F3F0E396F2F0E386F000E15
:102DD800616EF18E12009EAAF4EF16F0F6EF16F06F
:102DE800EFEF16F0000E00018B6FABA2FEEF16F0AE
:102DF80000EF17F002EF17F0AB98AB88AE50120057
:102E0800BD0E0001CF6F000ED06F000EB56F000E23
:102E1800B66FBBC0B7F0BCC0B8F0CF0EB96F000E2C
:102E2800BA6FD9EC14F012009E947DEC17F00009EB
:102E3800D8B421EF17F023EF17F019EF17F02AECA9
:102E480017F0BECF7AF0BFCF7BF01200BD500F0B4A
:102E5800040AD8A432EF17F034EF17F038EF17F060
:102E6800ACEC17F03AEF17F0B1EC17F01200CDEC1C
:102E780017F0DAEC16F058EC17F066EC17F087EC60
:102E880017F04AEC17F02CEC16F01200000ECC6E7E
:102E9800E00ECF6E000ECE6ECECF82F0CFCF83F095
:102EA8009E90310ECD6E1200700ED36E040ED26E4F
:102EB800400E9B6ED2AE63EF17F065EF17F05EEF32
:102EC80017F01200320E666E000E686E000E676E06
:102ED800A190A080E70E0F0149171200056E9EA869
:102EE80078EF17F07AEF17F073EF17F005C0ADFF22
:102EF80012009EB482EF17F085EF17F0010E86EFEF
:102F080017F0000E1200040EBD6E000EBF6E000E0C
:102F1800BE6EFC0E0F0149171200BEEC15F0990E9B
:102F28000001BB6FFA0EBC6F04EC17F012009EBADA
:102F3800A0EF17F0A3EF17F0010EA4EF17F0000EA3
:102F480012007A03810158023A02580272063A02C4
:102F5800BD50F00B0509BD6E1200BD50F00B040901
:102F6800BD6E120005C07EF006C07FF0120005C0DD
:102F780080F006C081F0120005C07CF006C07DF02C
:102F88001200066E065072EC17F01200B5EC0FF046
:062F98001200D09E1200A1
:10FA9800003F3A2068656C70206D656E750D0A6FC1
:10FAA8003A206B0D0A5A3A20726573657420707299
:10FAB8006F636573736F720D0A7A3A20636C6561C0
:10FAC8007220746865207465726D696E616C0D0AC8
:10FAD8000D0A633A20636F756E74206E756D6265EA
:10FAE80072206F662068616C6620626974730D0A03
:10FAF800743A2064657465726D696E652054696D29
:10FB08006520706572696F647320666F7220616C1E
:10FB18006C2074686520626974730D0A643A206405
:10FB280065636F6465206C6F676963203120706559
:10FB380072696F64730D0A723A205265706F72743D
:10FB4800206269742077696474682076616C7565D1
:10FB5800730D0A0D0A6C3A20634C6F6E65203420D1
:10FB6800646F6E6F722072656D6F74652062757454
:10FB7800746F6E730D0A312D343A205472616E73AE
:10FB88006D6974204952207061636B65740D0A7346
:10FB98003A205265636F726420627574746F6E20C8
:10FBA80073657175656E63650D0A533A2054726109
:10FBB8006E736D6974207265636F72646564206228
:10FBC8007574746F6E2073657175656E63650D0A63
:10FBD800693A205072696E74206F757420372064FA
:10FBE80075726174696F6E207265666572656E63A1
:10FBF80065730D0A2D2D2D2D2D2D2D2D2D2D2D2DF2
:10FC08002D2D2D2D2D2D2D2D2D2D2D2D2D2D2D2D1C
:10FC18002D2D2D2D2D2D2D2D2D2D2D2D2D2D2D2D0C
:10FC28002D2D2D2D2D0D0A002D2D2D2D2D2D2D2D6C
:10FC38002D2D2D2D2D2D2D2D2D2D2D2D2D2D2D2DEC
:10FC48002D2D2D2D2D2D2D2D2D2D2D2D2D2D2D2DDC
:10FC58002D2D2D2D2D2D2D2D2D0D0A5374617274E2
:10FC68003A2009094C6F3A202575207553094869CF
:10FC78003A202575202075530D0A4461746120309F
:10FC88003A09094C6F3A2025752075530948693A95
:10FC98002025752075530D0A4461746120313A0995
:10FCA800094C6F3A2025752075530948693A202573
:10FCB800752075530D0A53746F703A09094C6F3AE1
:10FCC8002025752075530D0A48616C662062697499
:10FCD800733A0925752068616C662062697473201F
:10FCE80070657220627574746F6E0D0A2D2D2D2D3E
:10FCF8002D2D2D2D2D2D2D2D2D2D2D2D2D2D2D2D2C
:10FD08002D2D2D2D2D2D2D2D2D2D2D2D2D2D2D2D1B
:10FD18002D2D2D2D2D2D2D2D2D2D2D2D2D0D0A007B
:10FD2800507265737320627574746F6E7320746F8C
:10FD3800207265636F726420612073657175656EEA
:10FD4800636520286D61783A202575206275747482
:10FD58006F6E73292E20507265737320616E79203F
:10FD68006B6579207768656E20646F6E650D0A0093
:10FD7800496E7374616C6C2061206A756D70657270
:10FD88002066726F6D2052433420746F20524332C4
:10FD9800206F6E6C7920616674657220756E706C68
:10FDA800756767696E67205049434B6974340D0A5B
:10FDB80000546F20626567696E20636F756E7469A1
:10FDC8006E672065646765732C20706C6561736568
:10FDD800207072657373206120627574746F6E2071
:10FDE8006F6E207468652072656D6F7465200D0AEA
:10FDF80000436F6E6E6563742061206A756D70656F
:10FE0800722066726F6D2052433120746F20495200
:10FE1800205472616E736D69747465722050494E16
:10FE28000D0A0053656E6420616E20495220736983
:10FE3800676E616C20746F207265636F72642064F2
:10FE480075726174696F6E730D0A00507265737311
:10FE5800206120627574746F6E20746F206465630E
:10FE68006F64652077617665666F726D0D0A005064
:10FE7800726F647563696E67207369676E616C2061
:10FE8800666F7220256320627574746F6E0D0A00A8
:10FE980046696E6973686564206C6561726E696E27
:10FEA8006720627574746F6E7320312D340D0A00EB
:10FEB8005472616E736D697474696E6720627574CB
:10FEC800746F6E2073657175656E63653A0D0A000F
:10FED8004E756D626572206F662046616C6C696E46
:10FEE800672045646765733A202575200D0A004E22
:10FEF800756D626572206F6620526973696E67203E
:10FF080045646765733A202575200D0A0046696EB9
:10FF18006973686564207265636F7264696E6720CF
:10FF280073657175656E63650D0A004C657427739A
:10FF380020636C6F6E6520627574746F6E73203108
:10FF48002D340D0A0046696E697368656420747201
:10FF5800616E736D697474696E670D0A005072651D
:10FF680073732074686520257520627574746F6ECC
:10FF78000D0A00556E6B6E6F776E206B65792025C4
:10FF8800630D0A0046696E616C2050726F6A656382
:10FF9800740D0A0044657627323020426F6172641E
:10FFA8000D0A0009436F64653A20256C58200D0A34
:10FFB800000953657175656E63653A0D0A00090994
:10FFC800202D256C58200D0A00092D256C58200D70
:10FFD8000A0025752075730D0A006F3A096F6B0DBD
:10FFE8000A000D0A3E20006C58006C75006C780001
:08FFF800257500300031000006
:020000040020DA
:08000000FFFFFFFFFFFFFFFF00
:020000040030CA
:0E000000FF281F3CFFBF85FF0FC00FE00F4021
:00000001FF
